:020000040800F2
:1000000000100020990100085B0100085D01000854
:100010005F010008610100086301000800000000A2
:100020000000000000000000000000006501000862
:100030006701000800000000690100086B0100086A
:10004000A1010008A5010008A9010008AD010008F0
:10005000B1010008B5010008B9010008BD010008A0
:10006000C1010008C5010008C9010008CD01000850
:10007000D1010008D5010008D9010008DD01000800
:10008000E1010008E5010008E9010008ED010008B0
:10009000F1010008F5010008F9010008FD01000860
:1000A0000102000805020008090200080D0200080C
:1000B0001102000815020008190200081D020008BC
:1000C0002102000825020008290200082D0200086C
:1000D0003102000835020008390200083D0200081C
:1000E0004102000845020008490200084D020008CC
:1000F0005102000855020008590200085D0200087C
:100100006102000865020008690200086D0200082B
:100110007102000875020008790200087D020008DB
:100120008102000885020008890200088D0200088B
:1001300000F00DF8002801D0AFF30080AFF300808D
:100140000020AFF3008000F004F800F004F8012074
:1001500070470020704700F009B87047FEE7FEE7DF
:10016000FEE7FEE77047704770477047074638461E
:1001700000F002F8FBE7000080B5AFF30080024A10
:1001800011001820ABBEFBE726000200AFF3008091
:10019000AFF30080FFF7CCFF004800478D01000857
:1001A000FFF7FEBFFFF7FEBFFFF7FEBFFFF7FEBF83
:1001B000FFF7FEBFFFF7FEBFFFF7FEBFFFF7FEBF73
:1001C000FFF7FEBFFFF7FEBFFFF7FEBFFFF7FEBF63
:1001D000FFF7FEBFFFF7FEBFFFF7FEBFFFF7FEBF53
:1001E000FFF7FEBFFFF7FEBFFFF7FEBFFFF7FEBF43
:1001F000FFF7FEBFFFF7FEBFFFF7FEBFFFF7FEBF33
:10020000FFF7FEBFFFF7FEBFFFF7FEBFFFF7FEBF22
:10021000FFF7FEBFFFF7FEBFFFF7FEBFFFF7FEBF12
:10022000FFF7FEBFFFF7FEBFFFF7FEBFFFF7FEBF02
:10023000FFF7FEBFFFF7FEBFFFF7FEBFFFF7FEBFF2
:10024000FFF7FEBFFFF7FEBFFFF7FEBFFFF7FEBFE2
:10025000FFF7FEBFFFF7FEBFFFF7FEBFFFF7FEBFD2
:10026000FFF7FEBFFFF7FEBFFFF7FEBFFFF7FEBFC2
:10027000FFF7FEBFFFF7FEBFFFF7FEBFFFF7FEBFB2
:10028000FFF7FEBFFFF7FEBFFFF7FEBFFFF7FEBFA2
:040000050800018D61
:00000001FF
